:020000040800F2
:100000005007002099010008550A00084D0A000811
:10001000510A0008890500081311000800000000BB
:10002000000000000000000000000000A50D000816
:1000300031070008000000006D0C0008910E000858
:10004000B3010008B3010008B3010008B3010008C0
:10005000B3010008B3010008B3010008B3010008B0
:10006000B3010008B3010008B3010008B3010008A0
:10007000B3010008B3010008B3010008B301000890
:10008000B3010008B3010008B3010008B301000880
:10009000B3010008B3010008B3010008B301000870
:1000A000B3010008B3010008B3010008B301000860
:1000B000B3010008B3010008B3010008B301000850
:1000C000B3010008B3010008B3010008B301000840
:1000D000B3010008B3010008B3010008F50E0008E1
:1000E000B3010008B3010008B301000800F002F8F2
:1000F00000F042F80AA090E8000C82448344AAF180
:100100000107DA4501D100F037F8AFF2090EBAE87D
:100110000F0013F0010F18BFFB1A43F0010318473B
:100120007818000098180000103A24BF78C878C1E9
:10013000FAD8520724BF30C830C144BF04680C60ED
:10014000704700000023002400250026103A28BF35
:1001500078C1FBD8520728BF30C148BF0B60704739
:10016000642900F0A580732900F081810020704788
:100170001FB51FBD10B510BD00F0D4F91146FFF733
:10018000F7FF01F009F800F0F2F903B4FFF7F2FF0E
:1001900003BC00F0C0FF0000094880470948004741
:1001A000FEE7FEE7FEE7FEE7FEE7FEE7FEE7FEE727
:1001B000FEE7FEE704480549054A064B7047000084
:1001C000950E0008ED0000085001002050070020A7
:1001D0005003002050030020704700000FB4044972
:1001E00010B503AA029800F047F910BC5DF814FBA3
:1001F0001C0000202DE9F0410E460446002020623C
:100200002046E168884730B3252805D0D4E901218C
:100210009047206A401CF2E7E168204600278847A3
:10022000050018D0A5F14100192802D820354FF457
:1002300000673246294620462760FFF791FF40B10C
:10024000012804D0F61D26F007060836D8E7361D2B
:10025000D6E72846DAE7206ABDE8F08170B50C469B
:100260000546012A05D02878800600D5EA690023D2
:1002700002E0012305E05B1C934202D2E05C00280F
:10028000F9D1A869E618C01AA861286A184428623A
:100290002846AFF3008004E0D5E9012114F8010BF2
:1002A0009047B442F8D32846AFF3008070BD0000F9
:1002B0002DE9F0410646002410687529314616A53F
:1002C00010D0AFF30080002802DA404213A507E007
:1002D00031688A0701D512A502E0490704D511A5A6
:1002E000012401E0AFF3008000210A2206F1240777
:1002F00009E0B0FBF2FCB0FBF2F302FB1C00303073
:1003000078541846491C0028F3D123462A46304623
:10031000BDE8F04100F040B8000000002D000000F2
:100320002B0000002000000030B505460B462A4691
:1003300013F8014B12F8010B08B1A042F8D01CB120
:10034000002802D06D1CF1E7284630BD4FF00002B6
:100350000429C0F0128010F0030C00F0A180CCF151
:10036000040CBCF1020F18BF00F8012BA8BF20F845
:10037000022BA1EB0C0100F093B85FEAC17C24BF13
:1003800000F8012B00F8012B48BF00F8012B704743
:1003900070477047704770472DE9F0470D46994602
:1003A0009246044600F124080168880604D5E069F5
:1003B00021F01001216000E00120A84201DD471B6F
:1003C00000E00027A1697A1902EB0900081AA06170
:1003D0002078C00602D42046AFF30080002608E053
:1003E000D4E901211AF806009047206A401C761CC7
:1003F00020624E45F4DB2078C0060AD52046AFF3D4
:10040000008006E0D4E9012130209047206A401C9A
:100410002062381EA7F10107F4DC07E0D4E90121CE
:1004200018F805009047206A401C2062281EA5F19C
:100430000105F3DC2046AFF300802078000602D5EA
:100440000220BDE8F0870120FBE710B5436913B136
:10045000AFF3008001E0FFF701FF012010BD12782B
:1004600000F124010A7000224A700122EDE71168B0
:100470004FF0FF32E9E70000074B70B50D467B44B3
:1004800000F039F80446284600F048F810B14FF063
:10049000FF3070BD204670BDFB0C00004FF0000225
:1004A00000B5134694469646203922BFA0E80C506A
:1004B000A0E80C50B1F12001BFF4F7AF090728BF45
:1004C000A0E80C5048BF0CC05DF804EB890028BFC1
:1004D00040F8042B08BF704748BF20F8022B11F0EA
:1004E000804F18BF00F8012B7047000001694A1CBB
:1004F00002610878704700B58FB0CDE90131002165
:10050000059105497944CDE9031011466846FFF786
:1005100071FE0FB000BD0000E5FFFFFF007B00F0A3
:1005200080007047754600F02BF8AE46050069461E
:10053000534620F00700854618B020B5FFF73AFE75
:10054000BDE820404FF000064FF000074FF00008D4
:100550004FF0000B21F00701AC46ACE8C009ACE855
:10056000C009ACE8C009ACE8C0098D46704710B5B9
:100570000446AFF300802046BDE81040FFF705BEFB
:1005800000487047EC00002000BFFEE721B1026880
:1005900042F00102026004E002684FF6FE731A4066
:1005A0000260704701684FF6FE7211400160002141
:1005B000016041608160C1604B49884208D14A496D
:1005C0000839496841F00F01474A083A51608AE00A
:1005D00045491431884208D143490839496841F0F6
:1005E000F001414A083A51607DE03F492831884294
:1005F00008D13D490839496841F470613A4A083ADE
:10060000516070E038493C31884208D13649083998
:10061000496841F47041344A083A516063E0324914
:100620005031884208D130490839496841F4702175
:100630002D4A083A516056E02B496431884208D16E
:1006400029490839496841F47001274A083A51603C
:1006500049E025497831884208D123490839496859
:1006600041F07061204A083A51603CE01F498842DD
:1006700006D1011F096841F00F01021F116032E02D
:100680001A491431884208D11849091F096841F0F4
:10069000F001164A121F116025E0144928318842E2
:1006A00008D11249091F096841F470610F4A121FED
:1006B000116018E00D493C31884208D10B49091FEF
:1006C000096841F47041094A121F11600BE00749A3
:1006D0005031884207D10549091F096841F470214A
:1006E000024A121F116070470800024008040240CD
:1006F00010B50022026847F6F0739A430C6A8B68C3
:1007000023430C6923434C6923438C692343CC69FD
:1007100023434C6A23438C6A23431A430260CB6809
:1007200043600B6883604B68C36010BD41607047D5
:10073000704700B5034603E04FF47A7000F011F8FB
:10074000181EA3F10103F7D100BD10B5044603E064
:100750004FF47A70FFF7EDFF201EA4F10104F7D1EA
:1007600010BD00EBC001C9004FF0E0225161002133
:1007700091610521116100BF4FF0E021096901F489
:1007800080310029F8D004214FF0E0221161704738
:1007900010B518A0FFF722FD0320FFF7D6FF18A021
:1007A000FFF71CFD0120FFF7D0FF194A19A11EA079
:1007B000FFF714FD0120FFF7C8FF274927A0FFF727
:1007C0000DFD0120FFF7C1FF2B48FFF707FD0420B7
:1007D000FFF7BBFF29A136A0FFF700FD0220FFF7BE
:1007E000B4FF0C2000F070F84FF4FA70FFF7A1FF8F
:1007F00010BD000041542B5253540D0A000000005C
:1008000041542B43574D4F44453D310D0A000000E4
:100810000019000865737038323636266B316C77F4
:1008200039734F6B5637780041542B4D5154545502
:100830005345524346473D302C312C224E554C4CAB
:10084000222C222573222C222573222C302C302C92
:1008500022220D0A000000004419000841542B4DCB
:10086000515454434C49454E5449443D302C222563
:1008700073220D0A00000000B81800082F73797366
:100880002F6B316C7739734F6B5637782F657370D8
:10089000383236362F7468696E672F7365727669E1
:1008A00063652F70726F70657274792F7365740051
:1008B00041542B4D5154545355423D302C222573F5
:1008C000222C310D0A00000010B50446224602A178
:1008D0000AA0FFF783FC10BD2F6B316C7739734F83
:1008E0006B5637782F657370383236362F757365CF
:1008F000722F6573703832363600000041542B4D2C
:100900005154545055423D302C222573222C227BC9
:100910005C22746F74616C7765696768745C223AF5
:1009200025647D222C312C300D0A00002DE9F04188
:10093000024600250026002000230024002791F80D
:1009400003C00CF00F0591F803C00CF0100CBCF1C3
:10095000000F03D091F802C04CEA050591F800C0E1
:10096000BCF1000F31D0146800202BE04FF0010CD7
:100970000CFA00F3B1F800C00CEA03069E4220D145
:1009800083004FF00F0C0CFA03F7BC4305FA03FC8D
:100990004CEA040491F803C0BCF1280F06D14FF0D3
:1009A000010C0CFA00FCC2F814C00AE091F803C074
:1009B000BCF1480F05D14FF0010C0CFA00FCC2F855
:1009C00010C0401C0828D1D31460B1F800C0BCF19D
:1009D000FF0F34DD546800202EE000F1080C4FF0CA
:1009E000010808FA0CF3B1F800C00CEA03069E42B5
:1009F00021D183004FF00F0C0CFA03F7BC4305FA2A
:100A000003FC4CEA040491F803C0BCF1280F05D1A3
:100A100000F1080C08FA0CF8C2F8148091F803C031
:100A2000BCF1480F07D100F1080C4FF0010808FA9B
:100A30000CF8C2F81080401C0828CED35460BDE8E2
:100A4000F0810AB1016100E04161704700BFFEE73B
:100A500000BFFEE77047000070B5002100230F22A1
:100A6000C47804B3154C246804F4E064C4F5E0646D
:100A7000210AC1F10403CA40447804FA03F18478DE
:100A80001440214309010E4C0678A155047804F066
:100A90001F050124AC4005786D11AD0005F1E0257E
:100AA000C5F8004109E0047804F01F050124AC40BA
:100AB000044D0678761145F8264070BD0CED00E037
:100AC00000E400E080E100E002490143024A1160D5
:100AD000704700000000FA050CED00E010B502467A
:100AE000012000E050430B1EA1F10101FAD110BD1D
:100AF00070B50546002415E000224FF480510B48E4
:100B0000FFF79FFF8020204100EA05024FF40051CB
:100B10000648FFF796FF012211030448FFF791FFF3
:100B2000601CC4B2082CE7DB70BD0000000C014063
:100B300070B505460C4645F0B00000F07BF810217A
:100B400041EA141000F076F804F00F0000F072F89B
:100B500070BD00002DE9F04105460E461746721E95
:100B6000D206110E6A1E5206100EFFF7E1FF002496
:100B700009E0A7F12001134A02EB0111085D00F022
:100B800067F8601CC4B2082CF3DB721ED206110E8B
:100B90006A1E012303EB4202D0B2FFF7C9FF002413
:100BA0000BE0A7F12001074A02EB011204F1080152
:100BB000505C00F04DF8601CC4B2082CF1DBBDE8BD
:100BC000F0810000C81200082DE9F04780460E466B
:100BD00017461D46002415E0281B411E0A20FFF77A
:100BE0007DFFB7FBF0F00A21B0FBF1F201FB120030
:100BF00000F130093019C1B24A464046FFF7AAFF5A
:100C0000601CC4B2AC42E7DBBDE8F0872DE9F041DF
:100C100007460E461546002407E02A5D3019C1B28A
:100C20003846FFF797FF601CC4B2285D0028F4D156
:100C3000BDE8F08110B5044600224FF4004103489E
:100C4000FFF7FFFE2046FFF753FF10BD000C0140E9
:100C500010B504460122D1030348FFF7F2FE2046F7
:100C6000FFF746FF10BD0000000C01407047000078
:100C700029B1064A52690243044B5A6104E0034A0F
:100C800052698243014B5A617047000000100240D4
:100C900029B1064AD2690243044BDA6104E0034AEF
:100CA000D2698243014BDA617047000000100240B4
:100CB00029B1064A92690243044B9A6104E0034A4F
:100CC00092698243014B9A61704700000010024014
:100CD00030B500210022002400232D4D6D6805F061
:100CE0000C0121B1042905D0082923D105E0294DA3
:100CF000056022E0274D05601FE0254D6D6805F475
:100D00007012234D6D6805F48034022505EB924284
:100D10001CB9214D554305600BE01D4D6D6805F470
:100D200000351DB11C4D5543056002E0194D55437A
:100D3000056002E0174D056000BF00BF144D6D68EF
:100D400005F0F0010909154D6B5C0568DD40456053
:100D50000F4D6D6805F4E061090A104D6B5C456844
:100D6000DD4085600A4D6D6805F46051C90A0B4D80
:100D70006B5C4568DD40C560054D6D6805F440411C
:100D8000890B074D6B5CC568B5FBF3F5056130BD9C
:100D90000010024000127A0000093D00000000200F
:100DA00010000020704710B500F002F810BD0000E0
:100DB0000CB50020019000903348006840F480306A
:100DC0003149086000BF3048006800F400300090EE
:100DD0000198401C0190009818B90198B0F5A06FD7
:100DE000F1D12948006800F4003010B101200090D2
:100DF00001E0002000900098012843D123480068BA
:100E000040F01000214908600846006820F0030007
:100E100008600846006840F0020008601A48406810
:100E2000194948600846406848600846406840F4F0
:100E3000806048600846406820F47C10486008469E
:100E4000406840F4E81048600846006840F0807050
:100E5000086000BF0C48006800F000700028F9D05E
:100E60000948406820F00300074948600846406888
:100E700040F00200486000BF0348406800F00C00EA
:100E80000828F9D10CBD00000010024000200240EB
:100E90007047000010B51348006840F00100114988
:100EA000086008464068104908400E4948600846F6
:100EB00000680E4908400B4908600846006820F4A5
:100EC000802008600846406820F4FE0048604FF427
:100ED0001F008860FFF767FF4FF00060044908605B
:100EE00010BD0000001002400000FFF8FFFFF6FEFA
:100EF00008ED00E010B540F224410F4800F048F83A
:100F0000C8B10D4800F000F90C48007810B10C4849
:100F100000F004F940F22441074800F015F80021E0
:100F20000848FFF733FBC8210648FFF7FFFB012104
:100F30000448FFF72BFB10BD0048004020000020B4
:100F4000240000203000024010B50022002340F6AB
:100F50006A14A14200D100BF0A1201249440A3B236
:100F6000DC43048010BD21B1828942F400528281A9
:100F700004E082894DF6FF731A40828170471AB1EE
:100F8000838A0B43838202E0838A8B438382704788
:100F900070B50246002400230025002040F66A16A2
:100FA000B14200D100BFC1F3421501F01F03012679
:100FB00006FA03F3012D02D19689334006E0022D93
:100FC00002D1168A334001E0968A33400C12012682
:100FD00006FA04F41688344013B10CB1012000E085
:100FE000002070BDF0B50346002400260025002037
:100FF00040F66A17B94200D100BF1846C1F3421447
:1010000001F01F06012707FA06F5012C01D10C306B
:1010100004E0022C01D1103000E014301AB107684E
:101020002F43076002E00768AF430760F0BD000090
:101030002DE9F04786B005460E460024A24600BFC3
:10104000A1460027B08900B100BF2F462C8A4CF67C
:10105000FF700440F08804432C82AC894EF6F310F4
:101060000440B08831890843718908430443AC8146
:10107000AC8A4FF6FF400440B0890443AC8201A81B
:10108000FFF726FE1F48874202D1DDF810A001E0DD
:10109000DDF80CA0A88900F4004040B10AEBCA00BA
:1010A00000EB0A1031684900B0FBF1F807E00AEBE9
:1010B000CA0000EB0A1031688900B0FBF1F8642027
:1010C000B8FBF0F004012009642101FB1089A88914
:1010D00000F4004040B1322000EBC900B0FBF1F059
:1010E00000F00700044308E0322000EB09106421FF
:1010F000B0FBF1F000F00F0004432C8106B0BDE816
:10110000F08700000038014001468888C0F30800DD
:10111000704700BFFEE700BF7047000010B50446EF
:1011200012A12046FFF700F978B10120104908709C
:101130000EA201210846FFF769FD01230D48027840
:1011400004211846FFF740FD0BE00BA2012102200D
:10115000FFF75CFD01230748027804210220FFF716
:1011600033FDC8212046FFF7F1F810BD4F4B0000BA
:1011700021000020200000204552520000BF054AF7
:10118000128802F04002002AF9D0C2B2014B1B1DA6
:101190001A807047004800404FF4E13000F004F836
:1011A000FFF7F6FA00BFFEE710B592B00446012142
:1011B0008804FFF76DFD01210820FFF779FD01216B
:1011C0000846FFF755FD18208DF847004FF4806062
:1011D000ADF8440003208DF8460011A93648FFF70A
:1011E000A5FB48208DF847004FF40060ADF844009F
:1011F00003208DF8460011A92F48FFF797FB0D94A7
:101200000020ADF840000C20ADF83E000020ADF805
:101210003C00ADF83A00ADF838000DA92748FFF7BB
:1012200007FF4FF4A060FFF74FFC27208DF8300038
:1012300001208DF8330000208DF831008DF8320048
:101240000CA8FFF709FC012240F225511B48FFF7CB
:10125000C9FE012240F224411848FFF7C3FE0121D4
:101260001648FFF780FE1648FFF79CF91348001D4B
:1012700001901448029000200390C82004900020A0
:1012800005908020069000200790089009904FF468
:1012900080500A9000200B9001A90948FFF728FA16
:1012A00001210748FFF772F9012240210348FFF7A7
:1012B00066FE12B010BD0000000C01400048004066
:1012C0003000024024000020000000000000000068
:1012D0000000000000000000000000F80000000016
:1012E000000000333000000000100C06100C060057
:1012F000000000000000000040C07840C0784000BE
:10130000043F04043F040400007088FC083000001F
:10131000001820FF211E0000F008F000E018000077
:1013200000211C031E211E0000F008887000000030
:101330001E2123241927211010160E000000000082
:101340000000000000000000000000E0180402009F
:10135000000000071820400000020418E000000010
:101360000040201807000000404080F0804040000E
:101370000202010F01020200000000F00000000064
:101380000101011F01010100000000000000000038
:1013900080B07000000000000000000000000000AD
:1013A0000001010101010101000000000000000036
:1013B00000303000000000000000000080601804D1
:1013C000006018060100000000E010080810E000AE
:1013D000000F102020100F00001010F80000000077
:1013E0000020203F202000000070080808887000BE
:1013F000003028242221300000300888884830003E
:101400000018202020110E000000C02010F800005D
:1014100000070424243F240000F8088888080800F6
:101420000019212020110E0000E01088881800000B
:10143000000F112020110E0000380808C8380800DD
:101440000000003F0000000000708808088870005D
:10145000001C222121221C0000E010080810E000DE
:101460000000312222110F00000000C0C000000067
:10147000000000303000000000000080000000008C
:101480000000806000000000000080402010080084
:10149000000102040810200040404040404040004D
:1014A0000404040404040400000810204080000028
:1014B0000020100804020100007048080808F0002D
:1014C0000000003036010000C030C828E810E000FD
:1014D0000718272423140B000000C038E000000088
:1014E000203C23020227382008F8888888700000F2
:1014F000203F202020110E00C030080808083800C6
:10150000071820202010080008F808080810E0003C
:10151000203F202020100F0008F88888E8081000DD
:10152000203F20202320180008F88888E8081000B1
:10153000203F200003000000C030080808380000E9
:1015400007182020221E020008F808000008F808EA
:10155000203F210101213F20000808F80808000071
:101560000020203F2020000000000808F8080800A4
:10157000C08080807F00000008F888C0281808001C
:10158000203F20012638200008F808000000000055
:10159000203F20202020300008F8F800F8F808004C
:1015A000203F003F003F200008F830C00008F80846
:1015B000203F200007183F00E01008080810E00056
:1015C0000F10202020100F0008F808080808F0006D
:1015D000203F210101010000E01008080810E00090
:1015E0000F18242438504F0008F888888888700025
:1015F000203F2000030C30200070880808083800C5
:101600000038202121221C00180808F808081800BA
:101610000000203F2000000008F808000008F8083B
:10162000001F202020201F000878880000C83808EC
:10163000000007380E010000F80800F80008F80064
:10164000033C0700073C03000818688080681808FE
:1016500020302C03032C30200838C800C83808007C
:101660000000203F2000000010080808C8380800CB
:101670002038262120201800000000FE020202006F
:101680000000007F40404000000C30C0000000001F
:10169000000000010638C00000020202FE00000047
:1016A000004040407F0000000000040202020400ED
:1016B000000000000000000000000000000000002A
:1016C0008080808080808080000202040000000012
:1016D000000000000000000000008080808000000A
:1016E0000019242222223F2008F8008080000000F8
:1016F000003F112020110E000000008080800000BB
:10170000000E112020201100000000808088F800C9
:10171000000E112020103F200000808080800000FB
:10172000001F222222221300008080F0888888185F
:101730000020203F2020000000008080808080006A
:10174000006B94949493600008F8008080800000FF
:10175000203F210000203F200080989800000000DA
:101760000020203F2020000000000080989800000A
:1017700000C08080807F000008F80000808080002A
:10178000203F24022D302000000808F8000000004F
:101790000020203F2020000080808080808080000A
:1017A000203F20003F20003F80800080808000009C
:1017B000203F210000203F2000008080808000002A
:1017C000001F202020201F0080800080800000005B
:1017D00080FFA12020110E0000000080808080008A
:1017E000000E112020A0FF8080808000808080007B
:1017F00020203F21200001000000808080808000A8
:101800000033242424241900008080E0808000001C
:101810000000001F20200000808000000080800069
:10182000001F202020103F208080800000808080CA
:1018300000010E300806010080800080008080805A
:101840000F300C030C300F0000808000808080007F
:101850000020312E0E3120008080800000808080AA
:1018600080818E701806010000808080808080005A
:101870000021302C2221300000000000807C020278
:1018800000000000003F404000000000FF0000009A
:1018900000000000FF0000000002027C8000000049
:1018A0000040403F00000000000601010202040465
:1018B000000000000000000041542B4D51545443DF
:1018C0004F4E4E3D302C22696F742D30367A3030B9
:1018D0006535703573356D3031702E6D7174742EC1
:1018E000696F746875622E616C6979756E63732EA9
:1018F000636F6D222C313838332C310D0A00000013
:1019000036356134303365346239316439373931D1
:10191000313333363236396164363130343736302C
:101920003436613838316166663765633435613421
:101930003139653861363863643833336133613344
:10194000000000006B316C7739734F6B5637782E7F
:10195000657370383236367C7365637572656D6F8A
:1019600064653D325C2C7369676E6D6574686F6485
:101970003D686D61637368613235365C2C74696DE6
:10198000657374616D703D313734303034363732C1
:10199000343034337C000000B81900080000002007
:1019A0002400000028010008DC19000824000020A1
:1019B0002C0700004401000800000000010203049D
:1019C00001020304060708090204060800000000DB
:0C19D0000000000000000000000100000A
:04000005080000ED02
:00000001FF
