:020000040800F2
:100000008807002099010008350D0008D10C000870
:10001000310D00082D06000823170008000000001D
:10002000000000000000000000000000FD110008BA
:10003000D507000800000000C5100008E9120008FC
:10004000B3010008B3010008B3010008B3010008C0
:10005000B3010008B3010008B3010008B3010008B0
:10006000B3010008B3010008B3010008B3010008A0
:10007000B3010008B3010008B3010008B301000890
:10008000B3010008B3010008B3010008B301000880
:10009000B3010008B3010008B3010008B301000870
:1000A000B3010008B3010008B3010008B301000860
:1000B0004D130008B3010008B3010008B3010008A4
:1000C000B3010008B3010008B3010008B301000840
:1000D000B3010008B3010008B3010008F5140008DB
:1000E000B3010008B3010008B301000800F002F8F2
:1000F00000F042F80AA090E8000C82448344AAF180
:100100000107DA4501D100F037F8AFF2090EBAE87D
:100110000F0013F0010F18BFFB1A43F0010318473B
:1001200088260000A8260000103A24BF78C878C1AD
:10013000FAD8520724BF30C830C144BF04680C60ED
:10014000704700000023002400250026103A28BF35
:1001500078C1FBD8520728BF30C148BF0B60704739
:10016000642900F0A580732900F081810020704788
:100170001FB51FBD10B510BD00F0D4F91146FFF733
:10018000F7FF01F039FB00F0F2F903B4FFF7F2FFDB
:1001900003BC01F0C8FA000009488047094800473D
:1001A000FEE7FEE7FEE7FEE7FEE7FEE7FEE7FEE727
:1001B000FEE7FEE704480549054A064B7047000084
:1001C000ED120008ED0000088801002088070020DB
:1001D0008803002088030020704700000FB4044902
:1001E00010B503AA029800F047F910BC5DF814FBA3
:1001F000180000202DE9F0410E4604460020206240
:100200002046E168884730B3252805D0D4E901218C
:100210009047206A401CF2E7E168204600278847A3
:10022000050018D0A5F14100192802D820354FF457
:1002300000673246294620462760FFF791FF40B10C
:10024000012804D0F61D26F007060836D8E7361D2B
:10025000D6E72846DAE7206ABDE8F08170B50C469B
:100260000546012A05D02878800600D5EA690023D2
:1002700002E0012305E05B1C934202D2E05C00280F
:10028000F9D1A869E618C01AA861286A184428623A
:100290002846AFF3008004E0D5E9012114F8010BF2
:1002A0009047B442F8D32846AFF3008070BD0000F9
:1002B0002DE9F0410646002410687529314616A53F
:1002C00010D0AFF30080002802DA404213A507E007
:1002D00031688A0701D512A502E0490704D511A5A6
:1002E000012401E0AFF3008000210A2206F1240777
:1002F00009E0B0FBF2FCB0FBF2F302FB1C00303073
:1003000078541846491C0028F3D123462A46304623
:10031000BDE8F04100F040B8000000002D000000F2
:100320002B0000002000000030B505460B462A4691
:1003300013F8014B12F8010B08B1A042F8D01CB120
:10034000002802D06D1CF1E7284630BD4FF00002B6
:100350000429C0F0128010F0030C00F0A180CCF151
:10036000040CBCF1020F18BF00F8012BA8BF20F845
:10037000022BA1EB0C0100F093B85FEAC17C24BF13
:1003800000F8012B00F8012B48BF00F8012B704743
:1003900070477047704770472DE9F0470D46994602
:1003A0009246044600F124080168880604D5E069F5
:1003B00021F01001216000E00120A84201DD471B6F
:1003C00000E00027A1697A1902EB0900081AA06170
:1003D0002078C00602D42046AFF30080002608E053
:1003E000D4E901211AF806009047206A401C761CC7
:1003F00020624E45F4DB2078C0060AD52046AFF3D4
:10040000008006E0D4E9012130209047206A401C9A
:100410002062381EA7F10107F4DC07E0D4E90121CE
:1004200018F805009047206A401C2062281EA5F19C
:100430000105F3DC2046AFF300802078000602D5EA
:100440000220BDE8F0870120FBE710B5436913B136
:10045000AFF3008001E0FFF701FF012010BD12782B
:1004600000F124010A7000224A700122EDE71168B0
:100470004FF0FF32E9E70000074B70B50D467B44B3
:1004800000F039F80446284600F048F810B14FF063
:10049000FF3070BD204670BD5B1300004FF00002BE
:1004A00000B5134694469646203922BFA0E80C506A
:1004B000A0E80C50B1F12001BFF4F7AF090728BF45
:1004C000A0E80C5048BF0CC05DF804EB890028BFC1
:1004D00040F8042B08BF704748BF20F8022B11F0EA
:1004E000804F18BF00F8012B7047000001694A1CBB
:1004F00002610878704700B58FB0CDE90131002165
:10050000059105497944CDE9031011466846FFF786
:1005100071FE0FB000BD0000E5FFFFFF007B00F0A3
:1005200080007047754600F02BF8AE46050069461E
:10053000534620F00700854618B020B5FFF73AFE75
:10054000BDE820404FF000064FF000074FF00008D4
:100550004FF0000B21F00701AC46ACE8C009ACE855
:10056000C009ACE8C009ACE8C0098D46704710B5B9
:100570000446AFF300802046BDE81040FFF705BEFB
:10058000004870472401002010B5254890F84A0023
:10059000312811D1224890F84D00312803D1012093
:1005A000204908703AE01E4890F84D00302835D1B7
:1005B00000201C49087031E0194890F84A003228A0
:1005C0000BD1194802780078401C174B1870012392
:1005D0000321042000F024FD20E0114890F84A0097
:1005E00033280BD1104802780078401C0E4B18704D
:1005F00001230521042000F013FD0FE0084890F8C6
:100600004A0034280AD1084802780078401C064B7A
:10061000187001230721042000F002FD10BD000026
:1006200048000020140000201C00002000BFFEE74E
:1006300021B1026842F00102026004E002684FF654
:10064000FE731A400260704701684FF6FE72114057
:1006500001600021016041608160C1604B498842B6
:1006600008D14A490839496841F00F01474A083A18
:1006700051608AE045491431884208D1434908391C
:10068000496841F0F001414A083A51607DE03F4934
:100690002831884208D13D490839496841F47061E0
:1006A0003A4A083A516070E038493C31884208D1F2
:1006B00036490839496841F47041344A083A516072
:1006C00063E032495031884208D1304908394968DD
:1006D00041F470212D4A083A516056E02B496431AB
:1006E000884208D129490839496841F47001274AEC
:1006F000083A516049E025497831884208D12349B8
:100700000839496841F07061204A083A51603CE07C
:100710001F49884206D1011F096841F00F01021FDD
:10072000116032E01A491431884208D11849091F72
:10073000096841F0F001164A121F116025E01449C2
:100740002831884208D11249091F096841F47061B3
:100750000F4A121F116018E00D493C31884208D140
:100760000B49091F096841F47041094A121F1160C1
:100770000BE007495031884207D10549091F096834
:1007800041F47021024A121F1160704708000240B4
:100790000804024010B50022026847F6F0739A433D
:1007A0000C6A8B6823430C6923434C6923438C698F
:1007B0002343CC6923434C6A23438C6A23431A4363
:1007C0000260CB6843600B6883604B68C36010BDF8
:1007D00041607047704700B5034603E04FF47A70FC
:1007E00000F011F8181EA3F10103F7D100BD10B5F8
:1007F000044603E04FF47A70FFF7EDFF201EA4F1EA
:100800000104F7D110BD00EBC001C9004FF0E02298
:100810005161002191610521116100BF4FF0E0217C
:10082000096901F480310029F8D004214FF0E02259
:100830001161704710B53EA0FFF7D0FC0320FFF711
:10084000D6FF01203D4908703D4908703DA0FFF7E3
:10085000C5FC00BF394800780028FBD04FF4FA707F
:10086000FFF7B9FF002035490870022034490870AD
:10087000384A39A13DA0FFF7B1FC00BF2F480078EE
:100880000028FBD04FF4FA70FFF7A5FF00202B499A
:10089000087003202A490870404941A0FFF79EFCD8
:1008A00000BF264800780028FBD04FF4FA70FFF70D
:1008B00092FF0020214908700420214908703F4818
:1008C000FFF78CFC00BF1D4800780028FBD04FF4D8
:1008D000FA70FFF780FF00201849087005201849BA
:1008E000087037A143A0FFF779FC00BF13480078D8
:1008F0000028FBD04FF4FA70FFF76DFF00200F497E
:10090000087006200E490870002000F081F800BF32
:100910000A4800780028FBD04FF4FA70FFF75BFF1D
:1009200000200749087001203849087010BD0000F8
:1009300041542B5253540D0A000000002A0000209D
:100940002900002041542B43574D4F44453D310D64
:100950000A0000001027000865737038323636260A
:100960006B316C7739734F6B5637780041542B4D90
:10097000515454555345524346473D302C312C2257
:100980004E554C4C222C222573222C222573222CCE
:10099000302C302C22220D0A0000000054270008C1
:1009A00041542B4D515454434C49454E5449443DB8
:1009B000302C222573220D0A00000000C8260008F2
:1009C0002F7379732F6B316C7739734F6B56377880
:1009D0002F657370383236362F7468696E672F73DF
:1009E0006572766963652F70726F70657274792FA6
:1009F0007365740041542B4D5154545355423D304E
:100A00002C222573222C310D0A0000002B0000201F
:100A100010B50446224602A10AA0FFF7DFFB10BD75
:100A20002F6B316C7739734F6B5637782F65737036
:100A3000383236362F757365722F657370383236DB
:100A40003600000041542B4D5154545055423D3016
:100A50002C222573222C227B5C22746F74616C77AC
:100A600065696768745C223A25647D222C312C30DC
:100A70000D0A00002DE9F041024600250026002065
:100A800000230024002791F803C00CF00F0591F813
:100A900003C00CF0100CBCF1000F03D091F802C0A1
:100AA0004CEA050591F800C0BCF1000F31D0146884
:100AB00000202BE04FF0010C0CFA00F3B1F800C05D
:100AC0000CEA03069E4220D183004FF00F0C0CFA73
:100AD00003F7BC4305FA03FC4CEA040491F803C095
:100AE000BCF1280F06D14FF0010C0CFA00FCC2F843
:100AF00014C00AE091F803C0BCF1480F05D14FF0D3
:100B0000010C0CFA00FCC2F810C0401C0828D1D31C
:100B10001460B1F800C0BCF1FF0F34DD5468002050
:100B20002EE000F1080C4FF0010808FA0CF3B1F8C0
:100B300000C00CEA03069E4221D183004FF00F0C47
:100B40000CFA03F7BC4305FA03FC4CEA040491F8E1
:100B500003C0BCF1280F05D100F1080C08FA0CF80D
:100B6000C2F8148091F803C0BCF1480F07D100F11E
:100B7000080C4FF0010808FA0CF8C2F81080401C6D
:100B80000828CED35460BDE8F08102460020936867
:100B90000B400BB1012000E000207047416170471D
:100BA000016170470AB1016100E0416170470000D6
:100BB0002DE9F04700F04CF804460E4800688442E6
:100BC00002D80020BDE8F0870A480068241A2046B1
:100BD00001F07CF80746084A084B00F01FFF054665
:100BE00000F0EAFE8146484600F074F88146484627
:100BF000E8E700002C000020713D0AD7A30059400F
:100C000008B50121082000F07FFA10208DF80300BC
:100C10004020ADF8000003208DF802006946074827
:100C2000FFF728FF48208DF803008020ADF8000072
:100C300069460248FFF71EFF08BD0000000C014096
:100C400010B500F005F80149086010BD2C00002027
:100C500070B580211D48FFF7A3FF0120FFF7D3FDEA
:100C600040211A48FFF79AFF002400BF802117484F
:100C7000FFF78BFF0028F9D1002516E0402113482B
:100C8000FFF78EFF64000120FFF7BDFD40210F48F4
:100C9000FFF784FF80210D48FFF777FF00B1641C48
:100CA0000120FFF7B0FD681CC5B2182DE6DB40211E
:100CB0000648FFF775FF84F400040120FFF7A3FD49
:100CC00040210248FFF76AFF204670BD000C01403A
:100CD00000BFFEE710B504461248007805280ADA7E
:100CE00011481049097840F821400E480078401C0E
:100CF0000C4908700EE00C480C49097840F8214076
:100D00000A480078401C052190FBF1F201FB12001B
:100D1000064908700521044800F007FD0248806874
:100D200010BD000030000020100100203100002024
:100D300000BFFEE77047000070B5002100230F22BE
:100D4000C47804B3154C246804F4E064C4F5E0648A
:100D5000210AC1F10403CA40447804FA03F18478FB
:100D60001440214309010E4C0678A155047804F083
:100D70001F050124AC4005786D11AD0005F1E0259B
:100D8000C5F8004109E0047804F01F050124AC40D7
:100D9000044D0678761145F8264070BD0CED00E054
:100DA00000E400E080E100E002490143024A1160F2
:100DB000704700000000FA050CED00E070B500245B
:100DC0000EE00021204600F0DFF8002504E00020BE
:100DD00000F06AF9681CC5B2802DF8DB601CC4B253
:100DE000082CEEDB70BD70B5002406E0002500E0A5
:100DF0006D1CB5F57A7FFBD3641CB4F57A7FF5D30F
:100E000000F052F8AE2000F041F9D52000F03EF994
:100E1000802000F03BF9A82000F038F93F2000F0D6
:100E200035F9D32000F032F9002000F02FF94020EE
:100E300000F02CF9A12000F029F9C82000F026F9D3
:100E4000DA2000F023F9122000F020F9812000F0D0
:100E50001DF9CF2000F01AF9D92000F017F9F12080
:100E600000F014F9DB2000F011F9302000F00EF949
:100E7000A42000F00BF9A62000F008F98D2000F066
:100E800005F9142000F002F9AF2000F0FFF8FFF799
:100E900095FF70BD10B50246012000E050430B1EC7
:100EA000A1F10101FAD110BD08B50121042000F023
:100EB0002BF90121082000F027F910208DF80300FC
:100EC00003208DF802004FF48050ADF80000694611
:100ED0001B48FFF7CFFD4FF40050ADF80000694606
:100EE0001748FFF7C7FD4FF48040ADF80000694692
:100EF0001348FFF7BFFD4FF40040ADF8000069460E
:100F00000F48FFF7B7FD4FF48070ADF80000694659
:100F10000C48FFF7AFFD012211030948FFF742FE1D
:100F2000012251030648FFF73DFE012291030448C8
:100F3000FFF738FE0122D1030148FFF733FE08BD59
:100F4000000C01400008014070B50546002415E082
:100F500000224FF480510B48FFF724FE80202041EF
:100F600000EA05024FF400510648FFF71BFE01227C
:100F700011030448FFF716FE601CC4B2082CE7DB1F
:100F800070BD0000000C014070B505460C4645F0F0
:100F9000B00000F07BF8102141EA141000F076F860
:100FA00004F00F0000F072F870BD00002DE9F04170
:100FB00005460E461746721ED206110E6A1E5206CE
:100FC000100EFFF7E1FF002409E0A7F12001134A0A
:100FD00002EB0111085D00F067F8601CC4B2082C38
:100FE000F3DB721ED206110E6A1E012303EB4202CE
:100FF000D0B2FFF7C9FF00240BE0A7F12001074A98
:1010000002EB011204F10801505C00F04DF8601C85
:10101000C4B2082CF1DBBDE8F0810000D820000844
:101020002DE9F04780460E4617461D46002415E080
:10103000281B411E0A20FFF72DFFB7FBF0F00A2105
:10104000B0FBF1F201FB120000F130093019C1B21E
:101050004A464046FFF7AAFF601CC4B2AC42E7DB39
:10106000BDE8F0872DE9F04107460E4615460024FD
:1010700007E02A5D3019C1B23846FFF797FF601CC0
:10108000C4B2285D0028F4D1BDE8F08110B5044653
:1010900000224FF400410348FFF784FD2046FFF78C
:1010A00053FF10BD000C014010B504460122D103CE
:1010B0000348FFF777FD2046FFF746FF10BD00000D
:1010C000000C01407047000029B1064A52690243F2
:1010D000044B5A6104E0034A52698243014B5A614E
:1010E000704700000010024029B1064AD26902434D
:1010F000044BDA6104E0034AD2698243014BDA61AE
:10110000704700000010024029B1064A926902436C
:10111000044B9A6104E0034A92698243014B9A614D
:10112000704700000010024030B50021002200246A
:1011300000232D4D6D6805F00C0121B1042905D067
:10114000082923D105E0294D056022E0274D0560DF
:101150001FE0254D6D6805F47012234D6D6805F490
:101160008034022505EB92421CB9214D55430560A0
:101170000BE01D4D6D6805F400351DB11C4D554348
:10118000056002E0194D5543056002E0174D05600A
:1011900000BF00BF144D6D6805F0F0010909154D41
:1011A0006B5C0568DD4045600F4D6D6805F4E061DE
:1011B000090A104D6B5C4568DD4085600A4D6D681D
:1011C00005F46051C90A0B4D6B5C4568DD40C56094
:1011D000054D6D6805F44041890B074D6B5CC56892
:1011E000B5FBF3F5056130BD0010024000127A0036
:1011F00000093D000000002010000020704710B5DD
:1012000000F002F810BD00000CB500200190009025
:101210003348006840F480303149086000BF3048EE
:10122000006800F4003000900198401C0190009884
:1012300018B90198B0F5A06FF1D12948006800F401
:10124000003010B10120009001E0002000900098D3
:10125000012843D12348006840F01000214908606C
:101260000846006820F0030008600846006840F067
:10127000020008601A4840681949486008464068FA
:1012800048600846406840F480604860084640680E
:1012900020F47C1048600846406840F4E81048603C
:1012A0000846006840F08070086000BF0C48006885
:1012B00000F000700028F9D00948406820F00300D1
:1012C000074948600846406840F00200486000BF97
:1012D0000348406800F00C000828F9D10CBD00005C
:1012E00000100240002002407047000010B5134873
:1012F000006840F001001149086008464068104944
:1013000008400E494860084600680E4908400B49ED
:1013100008600846006820F480200860084640689D
:1013200020F4FE0048604FF41F008860FFF767FF5D
:101330004FF000600449086010BD0000001002403A
:101340000000FFF8FFFFF6FE08ED00E070B5012198
:10135000880700F05CF800283ED02048007800287C
:1013600036D01F480078401C1D4908700846007898
:1013700064281EDB1B491C48006800F01BFD054665
:1013800000F0DAFDC4B22046FFF742FB002014490A
:1013900008701648007830B101231A461946042017
:1013A000FFF73EFE05E00123002219460420FFF767
:1013B00037FEFFF7FDFB0C4908600846006800F0A7
:1013C000BBFD04460423224601210320FFF728FE2B
:1013D0000121880700F00CF870BD00002B000020F0
:1013E00028000020000020412400002014000020DC
:1013F000CA430282704721B1028842F00102028092
:1014000004E002884FF6FE731A400280704730B540
:101410000246002000230024158A05EA010395896D
:1014200005EA010413B10CB1012000E0002030BD39
:101430001AB183890B43838102E083898B438381C3
:10144000704701894FF6F872114001817047000022
:10145000002202881D4B98420ED01D4B98420BD0A3
:10146000B0F1804F08D01B4B984205D01A4B9842E0
:1014700002D01A4B984204D14FF68F731A404B8812
:101480001A43174B984207D0164B984204D04FF698
:10149000FF431A40CB881A4302808B8883850B88D0
:1014A00003850A4B98420BD0094B984208D00E4B4B
:1014B000984205D00D4B984202D00D4B984201D175
:1014C0000B7A03860123838270470000002C0140C1
:1014D000003401400004004000080040000C0040BF
:1014E0000010004000140040004001400044014052
:1014F0000048014010B540F22441124800F050F875
:10150000F0B1104800F008F90F48007810B10F480A
:1015100000F034F90E48007808B1FFF735F840F2D2
:101520002441084800F018F800210A48FFF780F825
:10153000C8210848FFF74CF901210648FFF778F861
:1015400010BD000000480040290000204800002095
:101550002B0000203000024010B50022002340F68E
:101560006A14A14200D100BF0A1201249440A3B220
:10157000DC43048010BD21B1828942F40052828193
:1015800004E082894DF6FF731A40828170471AB1D8
:10159000838A0B43838202E0838A8B438382704772
:1015A00070B50246002400230025002040F66A168C
:1015B000B14200D100BFC1F3421501F01F03012663
:1015C00006FA03F3012D02D19689334006E0022D7D
:1015D00002D1168A334001E0968A33400C1201266C
:1015E00006FA04F41688344013B10CB1012000E06F
:1015F000002070BDF0B50346002400260025002021
:1016000040F66A17B94200D100BF1846C1F3421430
:1016100001F01F06012707FA06F5012C01D10C3055
:1016200004E0022C01D1103000E014301AB1076838
:101630002F43076002E00768AF430760F0BD00007A
:101640002DE9F04786B005460E460024A24600BFAD
:10165000A1460027B08900B100BF2F462C8A4CF666
:10166000FF700440F08804432C82AC894EF6F310DE
:101670000440B08831890843718908430443AC8130
:10168000AC8A4FF6FF400440B0890443AC8201A805
:10169000FFF74AFD1F48874202D1DDF810A001E0A4
:1016A000DDF80CA0A88900F4004040B10AEBCA00A4
:1016B00000EB0A1031684900B0FBF1F807E00AEBD3
:1016C000CA0000EB0A1031688900B0FBF1F8642011
:1016D000B8FBF0F004012009642101FB1089A889FE
:1016E00000F4004040B1322000EBC900B0FBF1F043
:1016F00000F00700044308E0322000EB09106421E9
:10170000B0FBF1F000F00F0004432C8106B0BDE8FF
:10171000F08700000038014001468888C0F30800C7
:10172000704700BFFEE700BF70472DE9F041054656
:101730000E4600271CE0002414E0621C55F822101D
:1017400055F8240000F097FC0AD255F82400611CDB
:1017500055F8211045F82410611C45F8210000BF00
:10176000601CC4B2701EC01BA042E6DC781CC7B26D
:10177000701EB842DFDCBDE8F081000010B5044601
:1017800012A12046FEF7D0FD78B101201049087063
:101790000EA201210846FFF765FC01230D480278DF
:1017A00004211846FFF73CFC0BE00BA201210220AC
:1017B000FFF758FC01230748027804210220FFF7B5
:1017C0002FFCC8212046FEF7C1FD10BD4F4B000085
:1017D0002A000020290000204552520000BF054A7F
:1017E000128802F04002002AF9D0C2B2014B1B1D40
:1017F0001A807047004800404FF4E13000F04CF888
:10180000FFF7F1FAFFF7FCF9FFF71AFA4FF4487007
:10181000FEF7E1FFFFF714FA00F004F8FFF70AF80B
:1018200000BFFEE71FB501210846FFF75DFC4FF042
:101830008040FFF706FE0020ADF80A00ADF8060074
:1018400040F2E730ADF8080040F2CF20ADF80400D8
:1018500000208DF80C0001A94FF08040FFF7F8FD43
:10186000012211469007FFF7E3FD4FF4A060FFF758
:101870009BFA1C208DF8000000208DF801008DF8E7
:10188000020001208DF803006846FFF755FA012198
:101890008807FFF7B0FD1FBD10B592B004460121C7
:1018A0008804FFF721FC01210820FFF72DFC01210E
:1018B0000846FFF709FC18208DF847004FF48060B8
:1018C000ADF8440003208DF8460011A93648FFF713
:1018D000D1F848208DF847004FF40060ADF844007F
:1018E00003208DF8460011A92F48FFF7C3F80D9487
:1018F0000020ADF840000C20ADF83E000020ADF80F
:101900003C00ADF83A00ADF838000DA92748FFF7C4
:1019100097FE4FF4A060FFF747FA27208DF83000BC
:1019200001208DF833008DF8310000208DF8320051
:101930000CA8FFF701FA012240F225511B48FFF7DE
:1019400059FE012240F224411848FFF753FE0121BD
:101950001648FFF710FE1648FEF776FE1348001DE6
:1019600001901448029000200390C82004900020A9
:1019700005908020069000200790089009904FF471
:1019800080500A9000200B9001A90948FEF702FF41
:1019900001210748FEF74CFE012240210348FFF7D2
:1019A000F6FD12B010BD0000000C014000480040E0
:1019B000300002404800002021F00042A2F16052B5
:1019C000B2F5801F01F0004328BFD2F17F6C0BD924
:1019D0005FEA001C43EAC20242EB507018BF704736
:1019E00028BF20F001007047B2F5801FBCBF184629
:1019F00070474FEA410C1CF5001F02D2084600F068
:101A000035BB70B500F075F900000089FFF7F6BF2F
:101A10004FF00040A0F58000704700002DE9C04164
:101A200030B4DFF8A0C23CEA111418BF3CEA13142A
:101A300000F0EC8081EA03051CEA111444EAD57435
:101A400018BF1CEA131500F0C780A4EB05044FF083
:101A5000004545EAC12145EAC32341EA505143EA22
:101A6000525304F17F74994204F500344FEAC020C8
:101A70004FEAC22208BF904200F09C804FEA1365F3
:101A80000FF24016765D4FEA134506FB05F7C7F1E6
:101A9000807706FB07F74FEAD737A7FB0368764244
:101AA000C8F58038A7FB06CE38BFA8F1010807FBB0
:101AB00008E64FF0000EA6FB028CE6FB03CEDCF13D
:101AC000000CCEF1004E38BFAEF1010EA6FB0C5853
:101AD0004FF000074FF00005E6FB0E87A1FB08C69C
:101AE000A0FB07CE16EB0E0645F10005E1FB0765EE
:101AF00015F1E04E7EBFA4F580345FEA46066D41E5
:101B000016F1800745F100054FEA17274FEA0666F0
:101B100047EA0567A6F1DE46B6F1805F4FEA152574
:101B20001FD9384624F0010C05EBC471BCF1FE6FDF
:101B300001EB0C1102D8F0BCBDE8008124425CBF6F
:101B400001F5801E9EEAC47F02D4F0BCBDE800818E
:101B5000244238D4F0BCA1F1C041BDE8004100F0FE
:101B600016B94FEAD22242EA43524FEAD323A7FBE7
:101B700002864FEAD02040EA415007FB03661EEA86
:101B80000E0F4FEAD12105FB026658BFA6EB0056A7
:101B9000B6EB00564FEA520E4EEAC37E18EB0E0E1D
:101BA00056EB530EBDD518EB02085E417F1C55F174
:101BB0000005B6E74FF480154FF000074FF0000620
:101BC0004FF00008ADE7F0BC4FF0000001F1C0415C
:101BD00001F00041BDE8008111EA0C1F0CEA131569
:101BE00000D00CE013EA0C1F00F025804FF000003D
:101BF000F0BC81EA030101F00041BDE80081F0BCC6
:101C0000BDE8004181EA030100F0C1B8F0BCBDE8C5
:101C1000004170B500F06DF8097EFC3E00F007B899
:101C200081EA03014FF0000001F00041704781EAB2
:101C3000030100F0ACB8F0BCBDE800414FF000007B
:101C400021497047FFFDFBF9F7F5F4F2F0EEEDEBFB
:101C5000E9E8E6E4E3E1E0DEDDDBDAD8D7D5D4D3AA
:101C6000D1D0CFCDCCCBCAC8C7C6C5C4C2C1C0BFF6
:101C7000BEBDBCBBBAB9B8B7B6B5B4B3B2B1B0AFFC
:101C8000AEADACABAAA9A8A8A7A6A5A4A3A3A2A1E0
:101C9000A09F9F9E9D9C9C9B9A999998979796959B
:101CA00095949393929191908F8F8E8E8D8C8C8B37
:101CB0008B8A8989888887878685858484838382BF
:101CC000828181800000FF070000F87FB0FA80F376
:101CD00010FA03F10AD0C3F11D0303F580634FEA44
:101CE00041504FEA035202EBD12170474FF0000000
:101CF00070470EF1020E2EF0030E5EF8046B3642B2
:101D000005D4012A43EB030515F5001F12D801285D
:101D100041EB010C1CF5001F0CD80ED14FEAD17C11
:101D200015F5001F0CEB4C0C0CF1020C08BF4CEB32
:101D3000D37C04E04FF0080C01E04FEAD37C0CEBBD
:101D40004C0526FA05F606F00706B6F1040C06D295
:101D50000EEB860CBDE870404CF0010C6047DFE8EC
:101D60000CF0090B02024FF000414FF00000A1F50A
:101D7000002170BD19461046012851EB010418BF1F
:101D8000D4F5001484BF002001F0004170BD0808A4
:101D9000A0F500114FEA31017047401058BFC0F163
:101DA0004040491058BFC1F140418142EFF30080EB
:101DB000704700004FF47F0C1CEAD0121EBF1CEAD3
:101DC000D11392EA0C0F93EA0C0F00F0858090EA91
:101DD000010F48BF42F4807240F4000C41F400004F
:101DE0002CF07F4120F07F4000B58142A2EB03023E
:101DF0000FF2081CACEB504EC0F100009EF800E062
:101E00004FEA4E0E00FB0EFC38BF49004FEA2C1C77
:101E100002F5FA020CFB0EF34FEACE1E4FEA112C2C
:101E20004FEAC1210EEB635E42EB22420EFB0CFC3B
:101E30004FEA1C5300FB03114FEA112C4FEA01310A
:101E40000EFB0CFC4FEADC4C00FB0C11C14228BF1E
:101E500009184CEB03335DF804EB10EB410143EB45
:101E6000C250B2F57C0F38BF704729D512F0F00F81
:101E70001CBF00F1C04000F0004070470081828329
:101E80008485868788898B8C8D8E8F919293959689
:101E900097999A9C9D9FA0A2A3A5A7A8AAACAEB013
:101EA000B2B3B5B7B9BCBEC0C2C5C7C9CCCED1D418
:101EB000D7D9DCDFE2E6E9ECF0F3F7FAFE00000048
:101EC0004FEA400C0CF1807CBCF17E4F28BF70477C
:101ED000B0F1C04000F0CAB890EA010F0CEAD1138B
:101EE00048BF42F48072624538BF634507D213F49D
:101EF0007F0F16D080EA010000F00040704710B557
:101F000000F06EF8097EFC3E00F005B880EA0100A2
:101F100000F00040704780EA010000F0004000F04F
:101F2000A5B812F47F0F04BF0248704780EA010091
:101F300000F09CB80000C07FC10DD1F19E0206DB0D
:101F40004FEA002343F0004323FA02F070470042B7
:101F500007D54FEA4001B1F1FE4F02D24FF0000029
:101F6000704710B500F03CF849922480002070477B
:101F70006FEA20007047000050EA010C00F1138066
:101F80001CF5000F58BFBCF5000F01D48842704704
:101F900007D710F5000F58BF11F5000F15D4884270
:101FA0007047894270471CF5000F04D5BCF5000F3F
:101FB000F7D5814270474FF0807C1CEB400F38BF53
:101FC0001CEB410F01D28142704710B500F008F8B8
:101FD000922449004FF000504FF08051FFF7DDBED2
:101FE0000EF1020E2EF0030E5EF8044B244204D4D0
:101FF0004FEA4102B2F17F4F11D84FEA4003B3F1EB
:102000007F4F0CD80ED14FEAD07CB2F17F4F0CEB52
:102010004C0C0CF1020C08BF4CEBD17C04E04FF0EF
:10202000080C01E04FEAD17C0CEB4C0324FA03F4DA
:1020300004F00704B4F1040C06D20EEB840CBDE8E6
:1020400010404CF0010C6047DFE80CF0070802027A
:102050004FF00040A0F5800010BD0846420018BFB8
:10206000D2F1807288BF00F0004010BDFF2141EA2C
:10207000D050C005704751EA000C00F113801CF5E8
:10208000000F58BFBCF5000F01D48142704707D73D
:1020900011F5000F58BF10F5000F15D4814270479D
:1020A000894270471CF5000F04D5BCF5000FF7D529
:1020B000884270474FF0807C1CEB410F38BF1CEB0F
:1020C000400F01D28842704780EA010081EA000196
:1020D00080EA0100FFF779BF000000000000000067
:1020E0000000000000000000000000F800000000F8
:1020F000000000333000000000100C06100C060039
:10210000000000000000000040C07840C07840009F
:10211000043F04043F040400007088FC0830000001
:10212000001820FF211E0000F008F000E018000059
:1021300000211C031E211E0000F008887000000012
:102140001E2123241927211010160E000000000064
:102150000000000000000000000000E01804020081
:10216000000000071820400000020418E0000000F2
:102170000040201807000000404080F080404000F0
:102180000202010F01020200000000F00000000046
:102190000101011F0101010000000000000000001A
:1021A00080B070000000000000000000000000008F
:1021B0000001010101010101000000000000000018
:1021C00000303000000000000000000080601804B3
:1021D000006018060100000000E010080810E00090
:1021E000000F102020100F00001010F80000000059
:1021F0000020203F202000000070080808887000A0
:10220000003028242221300000300888884830001F
:102210000018202020110E000000C02010F800003F
:1022200000070424243F240000F8088888080800D8
:102230000019212020110E0000E0108888180000ED
:10224000000F112020110E0000380808C8380800BF
:102250000000003F0000000000708808088870003F
:10226000001C222121221C0000E010080810E000C0
:102270000000312222110F00000000C0C000000049
:10228000000000303000000000000080000000006E
:102290000000806000000000000080402010080066
:1022A000000102040810200040404040404040002F
:1022B000040404040404040000081020408000000A
:1022C0000020100804020100007048080808F0000F
:1022D0000000003036010000C030C828E810E000DF
:1022E0000718272423140B000000C038E00000006A
:1022F000203C23020227382008F8888888700000D4
:10230000203F202020110E00C030080808083800A7
:10231000071820202010080008F808080810E0001E
:10232000203F202020100F0008F88888E8081000BF
:10233000203F20202320180008F88888E808100093
:10234000203F200003000000C030080808380000CB
:1023500007182020221E020008F808000008F808CC
:10236000203F210101213F20000808F80808000053
:102370000020203F2020000000000808F808080086
:10238000C08080807F00000008F888C028180800FE
:10239000203F20012638200008F808000000000037
:1023A000203F20202020300008F8F800F8F808002E
:1023B000203F003F003F200008F830C00008F80828
:1023C000203F200007183F00E01008080810E00038
:1023D0000F10202020100F0008F808080808F0004F
:1023E000203F210101010000E01008080810E00072
:1023F0000F18242438504F0008F888888888700007
:10240000203F2000030C30200070880808083800A6
:102410000038202121221C00180808F8080818009C
:102420000000203F2000000008F808000008F8081D
:10243000001F202020201F000878880000C83808CE
:10244000000007380E010000F80800F80008F80046
:10245000033C0700073C03000818688080681808E0
:1024600020302C03032C30200838C800C83808005E
:102470000000203F2000000010080808C8380800AD
:102480002038262120201800000000FE0202020051
:102490000000007F40404000000C30C00000000001
:1024A000000000010638C00000020202FE00000029
:1024B000004040407F0000000000040202020400CF
:1024C000000000000000000000000000000000000C
:1024D00080808080808080800002020400000000F4
:1024E00000000000000000000000808080800000EC
:1024F0000019242222223F2008F8008080000000DA
:10250000003F112020110E0000000080808000009C
:10251000000E112020201100000000808088F800AB
:10252000000E112020103F200000808080800000DD
:10253000001F222222221300008080F08888881841
:102540000020203F2020000000008080808080004C
:10255000006B94949493600008F8008080800000E1
:10256000203F210000203F200080989800000000BC
:102570000020203F202000000000008098980000EC
:1025800000C08080807F000008F80000808080000C
:10259000203F24022D302000000808F80000000031
:1025A0000020203F202000008080808080808000EC
:1025B000203F20003F20003F80800080808000007E
:1025C000203F210000203F2000008080808000000C
:1025D000001F202020201F0080800080800000003D
:1025E00080FFA12020110E0000000080808080006C
:1025F000000E112020A0FF8080808000808080005D
:1026000020203F2120000100000080808080800089
:102610000033242424241900008080E080800000FE
:102620000000001F2020000080800000008080004B
:10263000001F202020103F208080800000808080AC
:1026400000010E300806010080800080008080803C
:102650000F300C030C300F00008080008080800061
:102660000020312E0E31200080808000008080808C
:1026700080818E701806010000808080808080003C
:102680000021302C2221300000000000807C02025A
:1026900000000000003F404000000000FF0000007C
:1026A00000000000FF0000000002027C800000002B
:1026B0000040403F00000000000601010202040447
:1026C000000000000000000041542B4D51545443C1
:1026D0004F4E4E3D302C22696F742D30367A30309B
:1026E0006535703573356D3031702E6D7174742EA3
:1026F000696F746875622E616C6979756E63732E8B
:10270000636F6D222C313838332C310D0A000000F4
:10271000636238636338316135343330316565372E
:102720003337653933343532396266356166633142
:102730006437316537623135623565336138633806
:1027400030666134383438386432363634343832AE
:10275000000000006B316C7739734F6B5637782E61
:10276000657370383236367C7365637572656D6F6C
:1027700064653D325C2C7369676E6D6574686F6467
:102780003D686D61637368613235365C2C74696DC8
:10279000657374616D703D313734313030363534A6
:1027A000383035397C000000C827000800000020C0
:1027B00048000000280100081028000848000020F8
:1027C000400700004401000800000000010203046B
:1027D00001020304060708090204060800000000BD
:1027E00000000000010000000000000000000000E8
:1027F00000000100000000000000000000000000D8
:10280000000020416F12833A6F12833A00000000EB
:04000005080000ED02
:00000001FF
